:100B12000501030505010305050506020101060598
:100B22000303020106060505050602010106050387
:100B32000302010202010601030505030201060187
:100B42000305050302010505050503020105050567
:100B52000305060502030503020106050506020157
:100B6200040404040404040404020204040202044B
:100B72000202020204020604020204040202040245
:100B82000202020402060404040404040404040429
:100B9200040404040404040408040404040404080B
:100BA2000202020204040602020404040404040809
:1011A4007E007C007D64120620AC06AD07EC1205BF
:0E11B400207466FBFAF9783F12041502055903
:101185007E007C007D64120620AC06AD07EC1205DE
:0F119500207BD07ACC79CC783D12041502055915
:100D8100E4F518E518900B6293FF1211A48E198FE8
:100D91001AE518900B6293FF1211858E1B8F1CE5CB
:100DA10018900B1293FF60117E00121276AF1AAEEB
:100DB1001912120D121267800CE51A251CFFE51994
:100DC100351BFE8004AF1CAE1B12120D0518E51871
:050DD100C3944740AE91
:010DD60022FA
:1012470043BA80121284D2AF120D8112126780FE48
:10077100EFD3940740037FFF221205DAFED39403DF
:1007810040037FFF22EF7041EE700B9000011205D4
:10079100F3F4529352941205DAB4010B9000011252
:1007A10005F34293F452941205DAFEB4020A900062
:1007B100011205F342934294EEB4030D900001122D
:1007C10005F3FEF45293EE4294EF64017043120577
:1007D100DAFE700B9000011205F3F452915292EE81
:1007E100B4010B9000011205F34291F452921205EB
:1007F100DAB4020A9000011205F342914292120505
:10080100DAB4030D9000011205F3FEF45291EE42A9
:1008110092EF640270431205DAFE700B9000011230
:1008210005F3F452955296EEB4010B9000011205B6
:10083100F34295F452961205DAB4020A90000112BD
:1008410005F3429542961205DAB4030D90000112A8
:1008510005F3FEF45295EE4296EF640370431205E0
:10086100DAFE700B9000011205F3F452B152B2EEB0
:10087100B4010B9000011205F342B1F452B212051A
:10088100DAB4020A9000011205F342B142B2120534
:10089100DAB4030D9000011205F3FEF452B1EE42F9
:1008A100B2EF640470431205DAFE700B900001127E
:1008B10005F3F452B352B4EEB4010B9000011205EA
:1008C100F342B3F452B41205DAB4020A90000112F1
:1008D10005F342B342B41205DAB4030D90000112DC
:1008E10005F3FEF452B3EE42B4EF64057043120512
:1008F100DAFE700B9000011205F3F452C952CAEEF0
:10090100B4010B9000011205F342C9F452CA120559
:10091100DAB4020A9000011205F342C942CA120573
:10092100DAB4030D9000011205F3FEF452C9EE4250
:10093100CAEF640670431205DAFE700B90000112D3
:1009410005F3F452CB52CCEEB4010B900001120529
:10095100F342CBF452CC1205DAB4020A9000011230
:1009610005F342CB42CC1205DAB4030D900001121B
:1009710005F3FEF452CBEE42CCEF6407704312054F
:10098100DAFF700B9000011205F3F452E152E2EF2D
:10099100B4010B9000011205F342E1F452E2120599
:1009A100DAB4020A9000011205F342E142E21205B3
:1009B100DAB4030D9000011205F3FFF452E1EF42A6
:0409C100E27F0022AF
:0F1257007D607C09ED1D70011C144C70F7DFF1F8
:011266002265
:10120D00AB07AA06EB1BAE0270011A4E60077F01F9
:06121D0012125780EF22BF
:100F7300EFD3940140037FFF22EDD3940340037F1B
:100F8300FF22EF7004C2A98002D2A9ED700553B706
:100F9300FDC2B9BD010553B7FDD2B9BD020543B7C3
:0E0FA30002C2B9BD030543B702D2B97F0022D6
:100FB100EFD3940140037FFF22EDD3940340037FDD
:100FC100FF22EF7004C2AB8002D2ABED700553B7C4
:100FD100F7C2BBBD010553B7F7D2BBBD020543B78D
:0E0FE10008C2BBBD030543B708D2BB7F002288
:10114100EFD3940140037FFF22EDD3940340037F4B
:10115100FF22EF25E025E0FFE5AF54FB4FF5AFE4BB
:02116100FF226B
:10116300EFD3940140037FFF22EDD3940340037F29
:10117300FF22EFC43354E0FFE5AF54DF4FF5AFE494
:02118300FF2249
:10111E00EFD3940140037FFF22EDD3940340037F6E
:10112E00FF22EFC4333354C0FFE5AF54BF4FF5AFCA
:03113E00E4FF22A9
:100FEF00EFD3940140037FFF22EDD3940340037F9F
:100FFF00FF22EF7004C2A88002D2A8ED700553B78C
:10100F00FEC2B8BD010553B7FED2B8BD020543B746
:0E101F0001C2B8BD030543B701D2B87F00225D
:10102D00EFD3940140037FFF22EDD3940340037F60
:10103D00FF22EF7004C2AA8002D2AAED700553B749
:10104D00FBC2BABD010553B7FBD2BABD020543B70A
:0E105D0004C2BABD030543B704D2BA7F002215
:1011F500EFD3940140037FFF22EFC454F0FFE58F46
:0812050054EF4FF58FE4FF22C6
:1011DC00EFD3940140037FFF22EFC43354E0FFE5CB
:0911EC008F54DF4FF58FE4FF2260
:1011C200EFD3940140037FFF22EFC4333354C0FFB7
:0A11D200E58F54BF4FF58FE4FF22B4
:10106B00EFD3940140037FFF22EDD3940340037F22
:10107B00FF22EF7004C2AD8002D2ADED700553B705
:10108B00DFC2BDBD010553B7DFD2BDBD020543B7FE
:0E109B0020C2BDBD030543B720D2BD7F002299
:100DD700EDD3940340037FFF22EF30E10543E62084
:100DE700800353E6DFEF30E00543E610800353E668
:100DF700EFED700653B6DF53B5DFBD010653B6DF1F
:100E070043B520BD020643B62053B5DFBD030643F5
:080E1700B62043B5207F002244
:100D2800EFD3940140037FFF22EBD3940340037F6A
:100D3800FF22BF0112ED90FE817006E0547FF08023
:100D480011E04480F0800BEF700890FE83E0548738
:100D58004DF0EB700653B6DF53B5DFBB010653B653
:100D6800DF43B520BB020643B62053B5DFBB0306FD
:090D780043B62043B5207F0022A0
:1010A900EFD3940140037FFF22EDD3940340037FE4
:1010B900FF22EF7004C2AC8002D2ACED700553B7C9
:1010C900EFC2BCBD010553B7EFD2BCBD020543B7A2
:0E10D90010C2BCBD030543B710D2BC7F00227D
:100F3300EFD3940140037FFF22EDD3940340037F5B
:100F4300FF22E5AF54FE4FF5AFED700653B6FE53E7
:100F5300B5FEBD010653B6FE43B501BD020643B659
:100F63000153B5FEBD030643B60143B5017F00221D
:100E1F00EFD3940140037FFF22EDD3940340037F70
:100E2F00FF22EF33333354F8FFE5AF54F74FF5AFED
:100E3F00ED700653EEFE53DFFEBD010653EEFE438B
:100E4F00DF01BD020643EE0153DFFEBD030643EE95
:070E5F000143DF017F0022C7
:100E6600EFD3940140037FFF22EDD3940340037F29
:100E7600FF22EFC454F0FFE5AF54EF4FF5AFED702E
:100E86000653EEFD53DFFDBD010653EEFD43DF02C3
:100E9600BD020643EE0253DFFDBD030643EE0243E9
:050EA600DF027F0022C5
:100EAB00EFD3940140037FFF22EDD3940340037FE4
:100EBB00FF22EF25E0FFE5AF54FD4FF5AFED7006D8
:100ECB0053B6FD53B5FDBD010653B6FD43B502BD8B
:100EDB00020643B60253B5FDBD030643B60243B546
:040EEB00027F002260
:100C3E00EFD3948140037FFF22EBD3940340037FD5
:100C4E00FF22EF247F603004705890FEC4EDF0EB6D
:100C5E00700653B6FB53B5FBBB010653B6FB43B54B
:100C6E0004BB020643B60453B5FBEB640370384372
:100C7E00B60443B504803090FEE4EDF0EB700653FD
:100C8E00B6F753B5F7BB010653B6F743B508BB022B
:100C9E000643B60853B5F7BB030D43B60843B50874
:0A0CAE00800590FEE4EDF07F0022C7
:1010E700EDD394035026ED700653EEFB53DFFBBDA3
:1010F700010653EEFB43DF04BD020643EE0453DF54
:10110700FBBD030B43EE0443DF0480037FFF229004
:07111700FE62EFF07F0022F1
:10000300AD07ED6401707A90FECCE054FEF0E0544D
:10001300FBF090FEC8E054FCF01205DAFF90FEC836
:10002300E0548F4FF09000061205F3FF90FECC30A2
:10003300E00DE04401F090FEB1E04401F0800BE0FC
:1000430054FEF090FEB1E054FEF0EF90FECC30E1B0
:100053000DE04404F090FEB1E04402F0800BE05464
:10006300FBF090FEB1E054FDF090000312065DE555
:10007300F090FED5F090000312065D90FED60203C9
:10008300BDED6402707A90FECCE054EFF0E054BF13
:10009300F090FEC9E054FCF01205DAFF90FEC9E0CF
:1000A300548F4FF09000061205F3FF90FECC30E220
:1000B3000DE04410F090FEB1E04404F0800BE054F6
:1000C300EFF090FEB1E054FBF0EF90FECC30E30D87
:1000D300E04440F090FEB1E04408F0800BE054BFF0
:1000E300F090FEB1E054F7F090000312065DE5F0E6
:1000F30090FED7F090000312065D90FED80203BD78
:10010300ED6403707A90FECDE054FEF0E054FBF012
:1001130090FECAE054FCF01205DAFF90FECAE054E8
:100123008F4FF09000061205F3FF90FECD30E40DE3
:10013300E04401F090FEB1E04410F0800BE054FE87
:10014300F090FEB1E054EFF0EF90FECD30E50DE01E
:100153004404F090FEB1E04420F0800BE054FBF047
:1001630090FEB1E054DFF090000312065DE5F090DD
:10017300FED9F090000312065D90FEDA0203BDED96
:100183006404707A90FECDE054EFF0E054BFF09039
:10019300FECBE054FCF01205DAFF90FECBE0548F67
:1001A3004FF09000061205F3FF90FECD30E60DE010
:1001B3004410F090FEB1E04440F0800BE054EFF0C7
:1001C30090FEB1E054BFF0EF90FECD30E70DE04478
:1001D30040F090FEB1E04480F0800BE054BFF0901B
:1001E300FEB1E0547FF090000312065DE5F090FE4F
:1001F300DBF090000312065D90FEDC0203BDED64AC
:1002030080704F9000051205F390FEDEF090000120
:1002130012065DE5F090FED2F090000112065D90AB
:10022300FED3F09000081205F390FEDDB40106E062
:100233004480F08004E0547FF09000071205F390AF
:10024300FEC0B40106E04401F08004E054FEF07FF8
:100253000022ED6405705690FEECE054FEF090FE33
:10026300E8E054FCF01205DAFF90FEE8E0548F4F0B
:10027300F09000061205F390FEEC30E00DE044012F
:10028300F090FEB5E04401F0800BE054FEF090FEE8
:10029300B5E054FEF090000312065DE5F090FEF524
:1002A300F090000312065D90FEF60203BDED6406B6
:1002B300705690FEECE054EFF090FEE9E054FCF051
:1002C3001205DAFF90FEE9E0548F4FF0900006121A
:1002D30005F390FEEC30E20DE04410F090FEB5E043
:1002E3004404F0800BE054EFF090FEB5E054FBF0D3
:1002F30090000312065DE5F090FEF7F09000031204
:10030300065D90FEF80203BDED6407705590FEEDA7
:10031300E054FEF090FEEAE054FCF01205DAFF90A0
:10032300FEEAE0548F4FF09000061205F390FEEDC5
:1003330030E40DE04401F090FEB5E04410F0800B92
:10034300E054FEF090FEB5E054EFF0900003120687
:100353005DE5F090FEF9F090000312065D90FEFA61
:100363008058ED6408705790FEEDE054EFF090FE76
:10037300EBE054FCF01205DAFF90FEEBE0548F4FF4
:10038300F09000061205F390FEED30E60DE0441008
:10039300F090FEB5E04440F0800BE054EFF090FEA7
:1003A300B5E054BFF090000312065DE5F090FEFB4C
:1003B300F090000312065D90FEFCF07F0022ED64D6
:1003C30081704C9000051205F390FEFEF090000141
:1003D30012065DFDACF0EC90FEF2F0AF05A3EFF07A
:1003E3009000081205F390FEFDB40106E04480F08E
:1003F3008004E0547FF09000071205F390FEE0B410
:100403000106E04401F08004E054FEF07F00227F07
:02041300FF22C6
:1009C500EF24807003020A80147003020AC5248094
:1009D500B408004003020B119009EB75F003A4C5A0
:1009E5008325F0C58373020A03020A10020A200256
:1009F5000A30020A40020A50020A60020A70120610
:100A050032FDACF0EC90FED5020B0B900002120605
:100A15005DFDACF0EC90FED7020B0B9000041206C6
:100A25005DFDACF0EC90FED9020B0B9000061206B2
:100A35005DFDACF0EC90FEDB020B0B90000812069E
:100A45005DFDACF0EC90FEF5020B0B90000A120672
:100A55005DFDACF0EC90FEF7020B0B90000C12065E
:100A65005DFDACF0EC90FEF9020B0B90000E12064A
:100A75005DFDACF0EC90FEFB020B0B120632FDACFB
:100A8500F0EC90FED5F0AF05A3EFF0900002120652
:100A95005DFDACF0EC90FED7F0AF05A3EFF0900054
:100AA5000412065DFDACF0EC90FED9F0AF05A3EFA6
:100AB500F090000612065DFDACF0EC90FEDB804682
:100AC50090000812065DFDACF0EC90FEF5F0AF0568
:100AD500A3EFF090000A12065DFDACF0EC90FEF776
:100AE500F0AF05A3EFF090000C12065DFDACF0EC45
:100AF50090FEF9F0AF05A3EFF090000E12065DFD34
:0D0B0500ACF0EC90FEFBF0AF05A3EFF0228A
:1012230010080417049705270575062006E007B87C
:02123300082D84
:101236007519017518037B007A007918E4FF020717
:011246007136
:100CB800AB07AA06E4F9F8FF7E367D6E7C01120EBA
:100CC800EF8E268F27751D60AC26AD27E412052010
:100CD8007B0A7AD77923783C1204151205598E209D
:100CE8008F217523017B007A00791D7F051200038F
:100CF800E52724FFF51FE52634FFF51EE4F52275E8
:100D08002501752401FB7A00791D7F81120003906B
:100D1800FEB6E054FC4402F0E4FBFD7F81020C3E89
:0612840043BA800212369D
:03128A00020CB89B
:0E127600EF25E02406F8E6FE08E6FF02128AE5
:0F126700E4F525F524FB7A00791D7F8102000351
:10041500EC4D6011E8497017ED33EC3304600DE4E1
:10042500FCFFFEFD22E933E8330470F80205C5122E
:10043500059058046009E4CC24815006285009022F
:1004450005CF2840030205CCC0E0EB4A7044B980D3
:1004550006D0E0FB0205BBEF4E701CBD8008EBFF2C
:10046500EAFEE9FD80EBE98DF0A4FEE5F00204FE6D
:10047500E9CDF9EAFEEBFFEF89F0A4FCE5F0CE89C2
:10048500F0A42EFFE435F0CD89F0A42DFEE435F07F
:100495008067EF4E7005BD80D780C3EF8BF0A4ACAD
:1004A500F0EE8BF0A42CFCE435F0F8EF8AF0A42CE8
:1004B500E5F038FCE433CB8DF0A42CFCE5F03BF8FB
:1004C500EE8AF0A42CFCE5F038F8E433CF89F0A4EB
:1004D5002CFCE5F038CF3400CE89F0A42FFFE5F0F1
:1004E5003EFEE433C98DF0A42EFEE5F039CD8AF049
:1004F500A42FFFE5F03EFEE43DFD33D0E0FB5007C1
:100505000BBB000F0205CFEC2CFCEF33FFEE33FEE7
:06051500ED33FD0205A715
:10051B0075F020800E75F010800575F0087D007E5B
:10052B00007F003392D530D503120695EC33401083
:10053B00EF33FFEE33FEED33FDEC33FCD5F0ED2264
:0E054B00E5F0247EA2D513CC92E7CDCEFF22A0
:10055900EDD2E7CD33EC3392D524814006E4FFFE9A
:10056900FDFC22FCE4CFCECDCC24E0501174FF80F9
:10057900EDC3CC13CCCD13CDCE13CECF13CF047096
:07058900F030D5DE020695FB
:10059000E9D2E7C933E833F892D5EDD2E7CD33ECB1
:0705A00033FC5002B2D5222A
:1005A700EC30E7100FBF000C0EBE00080DBD0004B5
:1005B7000BEB6014A2D5EB13FCED92E7FD2274FF61
:1005C700FCFDFEFF22E480F8A2D574FF13FC7D80BA
:0305D700E480EFCE
:03000000020BB23E
:0C0BB200787FE4F6D8FD758127020BF96E
:1005DA00BB010689828A83E0225002E722BBFE021F
:0905EA00E32289828A83E4932252
:1005F300BB010CE58229F582E5833AF583E02250BD
:1006030006E92582F8E622BBFE06E92582F8E22206
:0D061300E58229F582E5833AF583E4932220
:10062000EF8DF0A4A8F0CF8CF0A428CE8DF0A42EEE
:02063000FE22A8
:10063200BB010A89828A83E0F5F0A3E02250068793
:10064200F009E71922BBFE07E3F5F009E319228955
:0B065200828A83E493F5F07401932288
:10065D00BB0110E58229F582E5833AF583E0F5F0DB
:10066D00A3E0225009E92582F886F008E622BBFEB8
:10067D000AE92582F8E2F5F008E222E5832AF583FE
:08068D00E993F5F0A3E99322C3
:100EEF00C2D5E830E70FB2D5E4C39BFBE49AFAE42E
:100EFF0099F9E498F8EC30E717B2D5120F251206DE
:100F0F00DFE4C39BFBE49AFAE499F9E498F88003D1
:100F1F001206DF30D50DE4C39FFFE49EFEE49DFD76
:040F2F00E49CFC2220
:0E069500C3E49FFFE49EFEE49DFDE49CFC2276
:100BBE00021247E493A3F8E493A34003F68001F2F4
:100BCE0008DFF48029E493A3F85407240CC8C33338
:100BDE00C4540F4420C8834004F456800146F6DF07
:100BEE00E4800B0102040810204080901223E47E62
:100BFE00019360BCA3FF543F30E509541FFEE493FC
:100C0E00A360010ECF54C025E060A840B8E493A3C2
:100C1E00FAE493A3F8E493A3C8C582C8CAC583CAED
:100C2E00F0A3C8C582C8CAC583CADFE9DEE780BEA5
:0112350000B8
:1006A30075F008758200EF2FFFEE33FECD33CDCC0E
:1006B30033CCC58233C5829BED9AEC99E582984091
:1006C3000CF582EE9BFEED9AFDEC99FC0FD5F0D66E
:1006D300E4CEFBE4CDFAE4CCF9A88222B800C1B998
:1006E3000059BA002DEC8BF084CFCECDFCE5F0CBD6
:1006F300F97818EF2FFFEE33FEED33FDEC33FCEB0F
:1007030033FB10D703994004EB99FB0FD8E5E4F9C9
:10071300FA227818EF2FFFEE33FEED33FDEC33FCB6
:10072300C933C910D7059BE99A4007EC9BFCE99AAA
:10073300F90FD8E0E4C9FAE4CCFB2275F010EF2FEF
:10074300FFEE33FEED33FDCC33CCC833C810D707EF
:100753009BEC9AE899400AED9BFDEC9AFCE899F82A
:0E0763000FD5F0DAE4CDFBE4CCFAE4C8F922BD
:00000001FF
