:100B000005010305050103050505060201010605AA
:100B10000303020106060505050602010106050399
:100B20000302010202010601030505030201060199
:100B30000305050302010505050503020105050579
:100B40000305060502030503020106050506020169
:100B5000040404040404040404020204040202045D
:100B60000202020204020604020204040202040257
:100B7000020202040206040404040404040404043B
:100B8000040404040404040408040404040404081D
:100B9000020202020404060202040404040404081B
:100D6F00E4F518F51943BA8012121BD2AF7519505A
:100D7F00E4F518E518C39519502DE518900B00935D
:100D8F00FF7E0012120DE518900B509375F064A4BE
:100D9F0085F01AF51BFFAE1A1211B41211FE7F1453
:0C0DAF001211EE051880CC1211FE80FE1F
:10075F00EFD3940740037FFF221205DAFED39403F1
:10076F0040037FFF22EF7041EE700B9000011205E6
:10077F00F3F4529352941205DAB4010B9000011264
:10078F0005F34293F452941205DAFEB4020A900074
:10079F00011205F342934294EEB4030D900001123F
:1007AF0005F3FEF45293EE4294EF64017043120589
:1007BF00DAFE700B9000011205F3F452915292EE93
:1007CF00B4010B9000011205F34291F452921205FD
:1007DF00DAB4020A9000011205F342914292120517
:1007EF00DAB4030D9000011205F3FEF45291EE42BC
:1007FF0092EF640270431205DAFE700B9000011243
:10080F0005F3F452955296EEB4010B9000011205C8
:10081F00F34295F452961205DAB4020A90000112CF
:10082F0005F3429542961205DAB4030D90000112BA
:10083F0005F3FEF45295EE4296EF640370431205F2
:10084F00DAFE700B9000011205F3F452B152B2EEC2
:10085F00B4010B9000011205F342B1F452B212052C
:10086F00DAB4020A9000011205F342B142B2120546
:10087F00DAB4030D9000011205F3FEF452B1EE420B
:10088F00B2EF640470431205DAFE700B9000011290
:10089F0005F3F452B352B4EEB4010B9000011205FC
:1008AF00F342B3F452B41205DAB4020A9000011203
:1008BF0005F342B342B41205DAB4030D90000112EE
:1008CF0005F3FEF452B3EE42B4EF64057043120524
:1008DF00DAFE700B9000011205F3F452C952CAEE02
:1008EF00B4010B9000011205F342C9F452CA12056C
:1008FF00DAB4020A9000011205F342C942CA120586
:10090F00DAB4030D9000011205F3FEF452C9EE4262
:10091F00CAEF640670431205DAFE700B90000112E5
:10092F0005F3F452CB52CCEEB4010B90000112053B
:10093F00F342CBF452CC1205DAB4020A9000011242
:10094F0005F342CB42CC1205DAB4030D900001122D
:10095F0005F3FEF452CBEE42CCEF64077043120561
:10096F00DAFF700B9000011205F3F452E152E2EF3F
:10097F00B4010B9000011205F342E1F452E21205AB
:10098F00DAB4020A9000011205F342E142E21205C5
:10099F00DAB4030D9000011205F3FFF452E1EF42B8
:0409AF00E27F0022C1
:0F11EE007D607C09ED1D70011C144C70F7DFF162
:0111FD0022CF
:1011B400AB07AA06EB1BAE0270011A4E60077F0153
:0611C4001211EE80EF2283
:100F5700EFD3940140037FFF22EDD3940340037F37
:100F6700FF22EF7004C2A98002D2A9ED700553B722
:100F7700FDC2B9BD010553B7FDD2B9BD020543B7DF
:0E0F870002C2B9BD030543B702D2B97F0022F2
:100F9500EFD3940140037FFF22EDD3940340037FF9
:100FA500FF22EF7004C2AB8002D2ABED700553B7E0
:100FB500F7C2BBBD010553B7F7D2BBBD020543B7A9
:0E0FC50008C2BBBD030543B708D2BB7F0022A4
:10112500EFD3940140037FFF22EDD3940340037F67
:10113500FF22EF25E025E0FFE5AF54FB4FF5AFE4D7
:02114500FF2287
:10114700EFD3940140037FFF22EDD3940340037F45
:10115700FF22EFC43354E0FFE5AF54DF4FF5AFE4B0
:02116700FF2265
:10110200EFD3940140037FFF22EDD3940340037F8A
:10111200FF22EFC4333354C0FFE5AF54BF4FF5AFE6
:03112200E4FF22C5
:100FD300EFD3940140037FFF22EDD3940340037FBB
:100FE300FF22EF7004C2A88002D2A8ED700553B7A8
:100FF300FEC2B8BD010553B7FED2B8BD020543B763
:0E10030001C2B8BD030543B701D2B87F002279
:10101100EFD3940140037FFF22EDD3940340037F7C
:10102100FF22EF7004C2AA8002D2AAED700553B765
:10103100FBC2BABD010553B7FBD2BABD020543B726
:0E10410004C2BABD030543B704D2BA7F002231
:10119C00EFD3940140037FFF22EFC454F0FFE58F9F
:0811AC0054EF4FF58FE4FF2220
:10118300EFD3940140037FFF22EFC43354E0FFE524
:091193008F54DF4FF58FE4FF22B9
:10116900EFD3940140037FFF22EFC4333354C0FF10
:0A117900E58F54BF4FF58FE4FF220D
:10104F00EFD3940140037FFF22EDD3940340037F3E
:10105F00FF22EF7004C2AD8002D2ADED700553B721
:10106F00DFC2BDBD010553B7DFD2BDBD020543B71A
:0E107F0020C2BDBD030543B720D2BD7F0022B5
:100DBB00EDD3940340037FFF22EF30E10543E620A0
:100DCB00800353E6DFEF30E00543E610800353E684
:100DDB00EFED700653B6DF53B5DFBD010653B6DF3B
:100DEB0043B520BD020643B62053B5DFBD03064312
:080DFB00B62043B5207F002261
:100D1600EFD3940140037FFF22EBD3940340037F7C
:100D2600FF22BF0112ED90FE817006E0547FF08035
:100D360011E04480F0800BEF700890FE83E054874A
:100D46004DF0EB700653B6DF53B5DFBB010653B665
:100D5600DF43B520BB020643B62053B5DFBB03060F
:090D660043B62043B5207F0022B2
:10108D00EFD3940140037FFF22EDD3940340037F00
:10109D00FF22EF7004C2AC8002D2ACED700553B7E5
:1010AD00EFC2BCBD010553B7EFD2BCBD020543B7BE
:0E10BD0010C2BCBD030543B710D2BC7F002299
:100F1700EFD3940140037FFF22EDD3940340037F77
:100F2700FF22E5AF54FE4FF5AFED700653B6FE5303
:100F3700B5FEBD010653B6FE43B501BD020643B675
:100F47000153B5FEBD030643B60143B5017F002239
:100E0300EFD3940140037FFF22EDD3940340037F8C
:100E1300FF22EF33333354F8FFE5AF54F74FF5AF09
:100E2300ED700653EEFE53DFFEBD010653EEFE43A7
:100E3300DF01BD020643EE0153DFFEBD030643EEB1
:070E43000143DF017F0022E3
:100E4A00EFD3940140037FFF22EDD3940340037F45
:100E5A00FF22EFC454F0FFE5AF54EF4FF5AFED704A
:100E6A000653EEFD53DFFDBD010653EEFD43DF02DF
:100E7A00BD020643EE0253DFFDBD030643EE024305
:050E8A00DF027F0022E1
:100E8F00EFD3940140037FFF22EDD3940340037F00
:100E9F00FF22EF25E0FFE5AF54FD4FF5AFED7006F4
:100EAF0053B6FD53B5FDBD010653B6FD43B502BDA7
:100EBF00020643B60253B5FDBD030643B60243B562
:040ECF00027F00227C
:100C2C00EFD3948140037FFF22EBD3940340037FE7
:100C3C00FF22EF247F603004705890FEC4EDF0EB7F
:100C4C00700653B6FB53B5FBBB010653B6FB43B55D
:100C5C0004BB020643B60453B5FBEB640370384384
:100C6C00B60443B504803090FEE4EDF0EB7006530F
:100C7C00B6F753B5F7BB010653B6F743B508BB023D
:100C8C000643B60853B5F7BB030D43B60843B50886
:0A0C9C00800590FEE4EDF07F0022D9
:1010CB00EDD394035026ED700653EEFB53DFFBBDBF
:1010DB00010653EEFB43DF04BD020643EE0453DF70
:1010EB00FBBD030B43EE0443DF0480037FFF229021
:0710FB00FE62EFF07F00220E
:10000300AD07ED6401707A90FECCE054FEF0E0544D
:10001300FBF090FEC8E054FCF01205DAFF90FEC836
:10002300E0548F4FF09000061205F3FF90FECC30A2
:10003300E00DE04401F090FEB1E04401F0800BE0FC
:1000430054FEF090FEB1E054FEF0EF90FECC30E1B0
:100053000DE04404F090FEB1E04402F0800BE05464
:10006300FBF090FEB1E054FDF090000312064BE567
:10007300F090FED5F090000312064B90FED60203DB
:10008300BDED6402707A90FECCE054EFF0E054BF13
:10009300F090FEC9E054FCF01205DAFF90FEC9E0CF
:1000A300548F4FF09000061205F3FF90FECC30E220
:1000B3000DE04410F090FEB1E04404F0800BE054F6
:1000C300EFF090FEB1E054FBF0EF90FECC30E30D87
:1000D300E04440F090FEB1E04408F0800BE054BFF0
:1000E300F090FEB1E054F7F090000312064BE5F0F8
:1000F30090FED7F090000312064B90FED80203BD8A
:10010300ED6403707A90FECDE054FEF0E054FBF012
:1001130090FECAE054FCF01205DAFF90FECAE054E8
:100123008F4FF09000061205F3FF90FECD30E40DE3
:10013300E04401F090FEB1E04410F0800BE054FE87
:10014300F090FEB1E054EFF0EF90FECD30E50DE01E
:100153004404F090FEB1E04420F0800BE054FBF047
:1001630090FEB1E054DFF090000312064BE5F090EF
:10017300FED9F090000312064B90FEDA0203BDEDA8
:100183006404707A90FECDE054EFF0E054BFF09039
:10019300FECBE054FCF01205DAFF90FECBE0548F67
:1001A3004FF09000061205F3FF90FECD30E60DE010
:1001B3004410F090FEB1E04440F0800BE054EFF0C7
:1001C30090FEB1E054BFF0EF90FECD30E70DE04478
:1001D30040F090FEB1E04480F0800BE054BFF0901B
:1001E300FEB1E0547FF090000312064BE5F090FE61
:1001F300DBF090000312064B90FEDC0203BDED64BE
:1002030080704F9000051205F390FEDEF090000120
:1002130012064BE5F090FED2F090000112064B90CF
:10022300FED3F09000081205F390FEDDB40106E062
:100233004480F08004E0547FF09000071205F390AF
:10024300FEC0B40106E04401F08004E054FEF07FF8
:100253000022ED6405705690FEECE054FEF090FE33
:10026300E8E054FCF01205DAFF90FEE8E0548F4F0B
:10027300F09000061205F390FEEC30E00DE044012F
:10028300F090FEB5E04401F0800BE054FEF090FEE8
:10029300B5E054FEF090000312064BE5F090FEF536
:1002A300F090000312064B90FEF60203BDED6406C8
:1002B300705690FEECE054EFF090FEE9E054FCF051
:1002C3001205DAFF90FEE9E0548F4FF0900006121A
:1002D30005F390FEEC30E20DE04410F090FEB5E043
:1002E3004404F0800BE054EFF090FEB5E054FBF0D3
:1002F30090000312064BE5F090FEF7F09000031216
:10030300064B90FEF80203BDED6407705590FEEDB9
:10031300E054FEF090FEEAE054FCF01205DAFF90A0
:10032300FEEAE0548F4FF09000061205F390FEEDC5
:1003330030E40DE04401F090FEB5E04410F0800B92
:10034300E054FEF090FEB5E054EFF0900003120687
:100353004BE5F090FEF9F090000312064B90FEFA85
:100363008058ED6408705790FEEDE054EFF090FE76
:10037300EBE054FCF01205DAFF90FEEBE0548F4FF4
:10038300F09000061205F390FEED30E60DE0441008
:10039300F090FEB5E04440F0800BE054EFF090FEA7
:1003A300B5E054BFF090000312064BE5F090FEFB5E
:1003B300F090000312064B90FEFCF07F0022ED64E8
:1003C30081704C9000051205F390FEFEF090000141
:1003D30012064BFDACF0EC90FEF2F0AF05A3EFF08C
:1003E3009000081205F390FEFDB40106E04480F08E
:1003F3008004E0547FF09000071205F390FEE0B410
:100403000106E04401F08004E054FEF07F00227F07
:02041300FF22C6
:1009B300EF24807003020A6E147003020AB32480CA
:1009C300B408004003020AFF9009D975F003A4C5D7
:1009D3008325F0C583730209F10209FE020A0E02A0
:1009E3000A1E020A2E020A3E020A4E020A5E12067C
:1009F30020FDACF0EC90FED5020AF990000212063D
:100A03004BFDACF0EC90FED7020AF99000041206FD
:100A13004BFDACF0EC90FED9020AF99000061206E9
:100A23004BFDACF0EC90FEDB020AF99000081206D5
:100A33004BFDACF0EC90FEF5020AF990000A1206A9
:100A43004BFDACF0EC90FEF7020AF990000C120695
:100A53004BFDACF0EC90FEF9020AF990000E120681
:100A63004BFDACF0EC90FEFB020AF9120620FDAC44
:100A7300F0EC90FED5F0AF05A3EFF0900002120664
:100A83004BFDACF0EC90FED7F0AF05A3EFF0900078
:100A93000412064BFDACF0EC90FED9F0AF05A3EFCA
:100AA300F090000612064BFDACF0EC90FEDB8046A6
:100AB30090000812064BFDACF0EC90FEF5F0AF058C
:100AC300A3EFF090000A12064BFDACF0EC90FEF79A
:100AD300F0AF05A3EFF090000C12064BFDACF0EC69
:100AE30090FEF9F0AF05A3EFF090000E12064BFD58
:0D0AF300ACF0EC90FEFBF0AF05A3EFF0229D
:1011CA0010080417049705270575062006E007B8D6
:0211DA00082DDE
:1011DD00751D01751C037B007A00791CE4FF020765
:0111ED005FA2
:100CA600AB07AA06E4F9F8FF7E367D6E7C01120ECC
:100CB600D38E258F26751C60AC25AD26E412052043
:100CC6007B0A7AD77923783C1204151205598E1FB0
:100CD6008F207522017B007A00791C7F05120003A4
:100CE600E52624FFF51EE52534FFF51DE4F52175FF
:100CF6002401752301FB7A00791C7F811200039081
:100D0600FEB6E054FC4402F0E4FBFD7F81020C2CAD
:06121B0043BA800211DD60
:03122100020CA616
:0E120D00EF25E02406F8E6FE08E6FF021221B7
:0F11FE00E4F524F523FB7A00791C7F81020003BE
:10041500EC4D6011E8497017ED33EC3304600DE4E1
:10042500FCFFFEFD22E933E8330470F80205C5122E
:10043500059058046009E4CC24815006285009022F
:1004450005CF2840030205CCC0E0EB4A7044B980D3
:1004550006D0E0FB0205BBEF4E701CBD8008EBFF2C
:10046500EAFEE9FD80EBE98DF0A4FEE5F00204FE6D
:10047500E9CDF9EAFEEBFFEF89F0A4FCE5F0CE89C2
:10048500F0A42EFFE435F0CD89F0A42DFEE435F07F
:100495008067EF4E7005BD80D780C3EF8BF0A4ACAD
:1004A500F0EE8BF0A42CFCE435F0F8EF8AF0A42CE8
:1004B500E5F038FCE433CB8DF0A42CFCE5F03BF8FB
:1004C500EE8AF0A42CFCE5F038F8E433CF89F0A4EB
:1004D5002CFCE5F038CF3400CE89F0A42FFFE5F0F1
:1004E5003EFEE433C98DF0A42EFEE5F039CD8AF049
:1004F500A42FFFE5F03EFEE43DFD33D0E0FB5007C1
:100505000BBB000F0205CFEC2CFCEF33FFEE33FEE7
:06051500ED33FD0205A715
:10051B0075F020800E75F010800575F0087D007E5B
:10052B00007F003392D530D503120683EC33401095
:10053B00EF33FFEE33FEED33FDEC33FCD5F0ED2264
:0E054B00E5F0247EA2D513CC92E7CDCEFF22A0
:10055900EDD2E7CD33EC3392D524814006E4FFFE9A
:10056900FDFC22FCE4CFCECDCC24E0501174FF80F9
:10057900EDC3CC13CCCD13CDCE13CECF13CF047096
:07058900F030D5DE0206830D
:10059000E9D2E7C933E833F892D5EDD2E7CD33ECB1
:0705A00033FC5002B2D5222A
:1005A700EC30E7100FBF000C0EBE00080DBD0004B5
:1005B7000BEB6014A2D5EB13FCED92E7FD2274FF61
:1005C700FCFDFEFF22E480F8A2D574FF13FC7D80BA
:0305D700E480EFCE
:03000000020BA050
:0C0BA000787FE4F6D8FD758126020BE793
:1005DA00BB010689828A83E0225002E722BBFE021F
:0905EA00E32289828A83E4932252
:1005F300BB010CE58229F582E5833AF583E02250BD
:1006030006E92582F8E622BBFE06E92582F8E22206
:0D061300E58229F582E5833AF583E4932220
:10062000BB010A89828A83E0F5F0A3E022500687A5
:10063000F009E71922BBFE07E3F5F009E319228967
:0B064000828A83E493F5F0740193229A
:10064B00BB0110E58229F582E5833AF583E0F5F0ED
:10065B00A3E0225009E92582F886F008E622BBFECA
:10066B000AE92582F8E2F5F008E222E5832AF58310
:08067B00E993F5F0A3E99322D5
:100ED300C2D5E830E70FB2D5E4C39BFBE49AFAE44A
:100EE30099F9E498F8EC30E717B2D5120F09120616
:100EF300CDE4C39BFBE49AFAE499F9E498F8800300
:100F03001206CD30D50DE4C39FFFE49EFEE49DFDA4
:040F1300E49CFC223C
:0E068300C3E49FFFE49EFEE49DFDE49CFC2288
:100BAC00020D6FE493A3F8E493A34003F68001F2E3
:100BBC0008DFF48029E493A3F85407240CC8C3334A
:100BCC00C4540F4420C8834004F456800146F6DF19
:100BDC00E4800B01020408102040809011CAE47ECE
:100BEC00019360BCA3FF543F30E509541FFEE4930E
:100BFC00A360010ECF54C025E060A840B8E493A3D5
:100C0C00FAE493A3F8E493A3C8C582C8CAC583CAFF
:100C1C00F0A3C8C582C8CAC583CADFE9DEE780BEB7
:0111DC000012
:1006910075F008758200EF2FFFEE33FECD33CDCC20
:1006A10033CCC58233C5829BED9AEC99E5829840A3
:1006B1000CF582EE9BFEED9AFDEC99FC0FD5F0D680
:1006C100E4CEFBE4CDFAE4CCF9A88222B800C1B9AA
:1006D1000059BA002DEC8BF084CFCECDFCE5F0CBE8
:1006E100F97818EF2FFFEE33FEED33FDEC33FCEB21
:1006F10033FB10D703994004EB99FB0FD8E5E4F9DC
:10070100FA227818EF2FFFEE33FEED33FDEC33FCC8
:10071100C933C910D7059BE99A4007EC9BFCE99ABC
:10072100F90FD8E0E4C9FAE4CCFB2275F010EF2F01
:10073100FFEE33FEED33FDCC33CCC833C810D70701
:100741009BEC9AE899400AED9BFDEC9AFCE899F83C
:0E0751000FD5F0DAE4CDFBE4CCFAE4C8F922CF
:00000001FF
